{
  "contractName": "InkaUniswapProvider",
  "abi": [
    {
      "inputs": [
        {
          "internalType": "address",
          "name": "_weth",
          "type": "address"
        },
        {
          "internalType": "address",
          "name": "_factory",
          "type": "address"
        }
      ],
      "stateMutability": "nonpayable",
      "type": "constructor"
    },
    {
      "anonymous": false,
      "inputs": [
        {
          "indexed": false,
          "internalType": "uint256",
          "name": "amountOut",
          "type": "uint256"
        },
        {
          "indexed": false,
          "internalType": "uint256",
          "name": "fee",
          "type": "uint256"
        }
      ],
      "name": "LOG_AGG_SWAP",
      "type": "event"
    },
    {
      "inputs": [],
      "name": "FEE_DENOMINATOR",
      "outputs": [
        {
          "internalType": "uint256",
          "name": "",
          "type": "uint256"
        }
      ],
      "stateMutability": "view",
      "type": "function",
      "constant": true
    },
    {
      "inputs": [],
      "name": "WETH",
      "outputs": [
        {
          "internalType": "address",
          "name": "",
          "type": "address"
        }
      ],
      "stateMutability": "view",
      "type": "function",
      "constant": true
    },
    {
      "inputs": [],
      "name": "aggregatorFee",
      "outputs": [
        {
          "internalType": "uint256",
          "name": "",
          "type": "uint256"
        }
      ],
      "stateMutability": "view",
      "type": "function",
      "constant": true
    },
    {
      "inputs": [],
      "name": "uniswapFactory",
      "outputs": [
        {
          "internalType": "address",
          "name": "",
          "type": "address"
        }
      ],
      "stateMutability": "view",
      "type": "function",
      "constant": true
    },
    {
      "inputs": [
        {
          "internalType": "uint256",
          "name": "amountOutMin",
          "type": "uint256"
        },
        {
          "internalType": "address[]",
          "name": "path",
          "type": "address[]"
        },
        {
          "internalType": "address",
          "name": "to",
          "type": "address"
        },
        {
          "internalType": "uint256",
          "name": "deadline",
          "type": "uint256"
        }
      ],
      "name": "swapETHForTokensSupportingFee",
      "outputs": [],
      "stateMutability": "payable",
      "type": "function",
      "payable": true
    }
  ],
  "bytecode": "0x60806040526301c9c38060025534801561001857600080fd5b5060405161199e38038061199e8339818101604052604081101561003b57600080fd5b810190808051906020019092919080519060200190929190505050600073ffffffffffffffffffffffffffffffffffffffff168273ffffffffffffffffffffffffffffffffffffffff1614156100dc576040517f08c379a00000000000000000000000000000000000000000000000000000000081526004018080602001828103825260268152602001806119786026913960400191505060405180910390fd5b600073ffffffffffffffffffffffffffffffffffffffff168173ffffffffffffffffffffffffffffffffffffffff161415610162576040517f08c379a000000000000000000000000000000000000000000000000000000000815260040180806020018281038252602981526020018061194f6029913960400191505060405180910390fd5b816000806101000a81548173ffffffffffffffffffffffffffffffffffffffff021916908373ffffffffffffffffffffffffffffffffffffffff16021790555080600160006101000a81548173ffffffffffffffffffffffffffffffffffffffff021916908373ffffffffffffffffffffffffffffffffffffffff160217905550505061175b806101f46000396000f3fe60806040526004361061004a5760003560e01c80638bdb2afa1461004f5780639ed5b4dd14610090578063ad5c4648146100bb578063c21a6457146100fc578063d73792a9146101a9575b600080fd5b34801561005b57600080fd5b506100646101d4565b604051808273ffffffffffffffffffffffffffffffffffffffff16815260200191505060405180910390f35b34801561009c57600080fd5b506100a56101fa565b6040518082815260200191505060405180910390f35b3480156100c757600080fd5b506100d0610200565b604051808273ffffffffffffffffffffffffffffffffffffffff16815260200191505060405180910390f35b6101a76004803603608081101561011257600080fd5b81019080803590602001909291908035906020019064010000000081111561013957600080fd5b82018360208201111561014b57600080fd5b8035906020019184602083028401116401000000008311171561016d57600080fd5b9091929391929390803573ffffffffffffffffffffffffffffffffffffffff16906020019092919080359060200190929190505050610224565b005b3480156101b557600080fd5b506101be610359565b6040518082815260200191505060405180910390f35b600160009054906101000a900473ffffffffffffffffffffffffffffffffffffffff1681565b60025481565b60008054906101000a900473ffffffffffffffffffffffffffffffffffffffff1681565b804281101561027e576040517f08c379a00000000000000000000000000000000000000000000000000000000081526004018080602001828103825260258152602001806116a86025913960400191505060405180910390fd5b600061028d8787876000610362565b905060006102bd6402540be4006102af600254856108df90919063ffffffff16565b61097490919063ffffffff16565b90507f270e06e1460fe9df2e798064a58fdb072e3f3e1e39e7db96268c13849c025aed8282604051808381526020018281526020019250505060405180910390a16000610313828461098890919063ffffffff16565b905061034e888860018b8b90500381811061032a57fe5b9050602002013573ffffffffffffffffffffffffffffffffffffffff168783610a0b565b505050505050505050565b6402540be40081565b60008060009054906101000a900473ffffffffffffffffffffffffffffffffffffffff1673ffffffffffffffffffffffffffffffffffffffff16848460008181106103a957fe5b9050602002013573ffffffffffffffffffffffffffffffffffffffff1673ffffffffffffffffffffffffffffffffffffffff1614610432576040517f08c379a00000000000000000000000000000000000000000000000000000000081526004018080602001828103825260218152602001806116646021913960400191505060405180910390fd5b6000610447833461098890919063ffffffff16565b9050600081116104a2576040517f08c379a000000000000000000000000000000000000000000000000000000000815260040180806020018281038252602e8152602001806116f8602e913960400191505060405180910390fd5b60008054906101000a900473ffffffffffffffffffffffffffffffffffffffff1673ffffffffffffffffffffffffffffffffffffffff1663d0e30db0826040518263ffffffff1660e01b81526004016000604051808303818588803b15801561050a57600080fd5b505af115801561051e573d6000803e3d6000fd5b505050505060008054906101000a900473ffffffffffffffffffffffffffffffffffffffff1673ffffffffffffffffffffffffffffffffffffffff1663a9059cbb6105de600160009054906101000a900473ffffffffffffffffffffffffffffffffffffffff168888600081811061059257fe5b9050602002013573ffffffffffffffffffffffffffffffffffffffff16898960018181106105bc57fe5b9050602002013573ffffffffffffffffffffffffffffffffffffffff16610bee565b836040518363ffffffff1660e01b8152600401808373ffffffffffffffffffffffffffffffffffffffff16815260200182815260200192505050602060405180830381600087803b15801561063257600080fd5b505af1158015610646573d6000803e3d6000fd5b505050506040513d602081101561065c57600080fd5b810190808051906020019092919050505061067357fe5b600085856001888890500381811061068757fe5b9050602002013573ffffffffffffffffffffffffffffffffffffffff1673ffffffffffffffffffffffffffffffffffffffff166370a08231306040518263ffffffff1660e01b8152600401808273ffffffffffffffffffffffffffffffffffffffff16815260200191505060206040518083038186803b15801561070a57600080fd5b505afa15801561071e573d6000803e3d6000fd5b505050506040513d602081101561073457600080fd5b81019080805190602001909291905050509050610792868680806020026020016040519081016040528093929190818152602001838360200280828437600081840152601f19601f8201169050808301925050505050505030610d07565b600061087682888860018b8b9050038181106107aa57fe5b9050602002013573ffffffffffffffffffffffffffffffffffffffff1673ffffffffffffffffffffffffffffffffffffffff166370a08231306040518263ffffffff1660e01b8152600401808273ffffffffffffffffffffffffffffffffffffffff16815260200191505060206040518083038186803b15801561082d57600080fd5b505afa158015610841573d6000803e3d6000fd5b505050506040513d602081101561085757600080fd5b810190808051906020019092919050505061098890919063ffffffff16565b9050878110156108d1576040517f08c379a000000000000000000000000000000000000000000000000000000000815260040180806020018281038252602f81526020018061160d602f913960400191505060405180910390fd5b809350505050949350505050565b6000808214806108fc57508282838502925082816108f957fe5b04145b61096e576040517f08c379a00000000000000000000000000000000000000000000000000000000081526004018080602001828103825260148152602001807f64732d6d6174682d6d756c2d6f766572666c6f7700000000000000000000000081525060200191505060405180910390fd5b92915050565b600081838161097f57fe5b04905092915050565b6000828284039150811115610a05576040517f08c379a00000000000000000000000000000000000000000000000000000000081526004018080602001828103825260158152602001807f64732d6d6174682d7375622d756e646572666c6f77000000000000000000000081525060200191505060405180910390fd5b92915050565b600060608473ffffffffffffffffffffffffffffffffffffffff1663a9059cbb8585604051602401808373ffffffffffffffffffffffffffffffffffffffff168152602001828152602001925050506040516020818303038152906040529060e01b6020820180517bffffffffffffffffffffffffffffffffffffffffffffffffffffffff83818316178352505050506040518082805190602001908083835b60208310610ace5780518252602082019150602081019050602083039250610aab565b6001836020036101000a0380198251168184511680821785525050505050509050019150506000604051808303816000865af19150503d8060008114610b30576040519150601f19603f3d011682016040523d82523d6000602084013e610b35565b606091505b5091509150818015610b755750600081511480610b745750808060200190516020811015610b6257600080fd5b81019080805190602001909291905050505b5b610be7576040517f08c379a000000000000000000000000000000000000000000000000000000000815260040180806020018281038252601f8152602001807f5472616e7366657248656c7065723a205452414e534645525f4641494c45440081525060200191505060405180910390fd5b5050505050565b6000806000610bfd85856112bd565b91509150858282604051602001808373ffffffffffffffffffffffffffffffffffffffff1660601b81526014018273ffffffffffffffffffffffffffffffffffffffff1660601b8152601401925050506040516020818303038152906040528051906020012060405160200180807fff000000000000000000000000000000000000000000000000000000000000008152506001018373ffffffffffffffffffffffffffffffffffffffff1660601b8152601401828152602001807f96e8ac4277198ff8b6f785478aa9a39f403cb768dd02cbee326c3e7da348845f815250602001925050506040516020818303038152906040528051906020012060001c925050509392505050565b60005b60018351038110156112b857600080848381518110610d2557fe5b6020026020010151856001850181518110610d3c57fe5b6020026020010151915091506000610d5483836112bd565b509050600073ffffffffffffffffffffffffffffffffffffffff16600160009054906101000a900473ffffffffffffffffffffffffffffffffffffffff1673ffffffffffffffffffffffffffffffffffffffff1663e6a4390585856040518363ffffffff1660e01b8152600401808373ffffffffffffffffffffffffffffffffffffffff1681526020018273ffffffffffffffffffffffffffffffffffffffff1681526020019250505060206040518083038186803b158015610e1657600080fd5b505afa158015610e2a573d6000803e3d6000fd5b505050506040513d6020811015610e4057600080fd5b810190808051906020019092919050505073ffffffffffffffffffffffffffffffffffffffff161415610ebe576040517f08c379a00000000000000000000000000000000000000000000000000000000081526004018080602001828103825260238152602001806116856023913960400191505060405180910390fd5b6000610eed600160009054906101000a900473ffffffffffffffffffffffffffffffffffffffff168585610bee565b90506000806000808473ffffffffffffffffffffffffffffffffffffffff16630902f1ac6040518163ffffffff1660e01b815260040160606040518083038186803b158015610f3b57600080fd5b505afa158015610f4f573d6000803e3d6000fd5b505050506040513d6060811015610f6557600080fd5b81019080805190602001909291908051906020019092919080519060200190929190505050506dffffffffffffffffffffffffffff1691506dffffffffffffffffffffffffffff1691506000808773ffffffffffffffffffffffffffffffffffffffff168a73ffffffffffffffffffffffffffffffffffffffff1614610fec578284610fef565b83835b915091506110a7828b73ffffffffffffffffffffffffffffffffffffffff166370a082318a6040518263ffffffff1660e01b8152600401808273ffffffffffffffffffffffffffffffffffffffff16815260200191505060206040518083038186803b15801561105e57600080fd5b505afa158015611072573d6000803e3d6000fd5b505050506040513d602081101561108857600080fd5b810190808051906020019092919050505061098890919063ffffffff16565b95506110b4868383611434565b9450505050506000808573ffffffffffffffffffffffffffffffffffffffff168873ffffffffffffffffffffffffffffffffffffffff16146110f8578260006110fc565b6000835b91509150600060028c51038a10611113578a611157565b611156600160009054906101000a900473ffffffffffffffffffffffffffffffffffffffff16898e60028e018151811061114957fe5b6020026020010151610bee565b5b90508573ffffffffffffffffffffffffffffffffffffffff1663022c0d9f848484600067ffffffffffffffff8111801561119057600080fd5b506040519080825280601f01601f1916602001820160405280156111c35781602001600182028036833780820191505090505b506040518563ffffffff1660e01b8152600401808581526020018481526020018373ffffffffffffffffffffffffffffffffffffffff16815260200180602001828103825283818151815260200191508051906020019080838360005b8381101561123b578082015181840152602081019050611220565b50505050905090810190601f1680156112685780820380516001836020036101000a031916815260200191505b5095505050505050600060405180830381600087803b15801561128a57600080fd5b505af115801561129e573d6000803e3d6000fd5b505050505050505050505050508080600101915050610d0a565b505050565b6000808273ffffffffffffffffffffffffffffffffffffffff168473ffffffffffffffffffffffffffffffffffffffff161415611345576040517f08c379a00000000000000000000000000000000000000000000000000000000081526004018080602001828103825260258152602001806115e86025913960400191505060405180910390fd5b8273ffffffffffffffffffffffffffffffffffffffff168473ffffffffffffffffffffffffffffffffffffffff161061137f578284611382565b83835b8092508193505050600073ffffffffffffffffffffffffffffffffffffffff168273ffffffffffffffffffffffffffffffffffffffff16141561142d576040517f08c379a000000000000000000000000000000000000000000000000000000000815260040180806020018281038252601e8152602001807f556e697377617056324c6962726172793a205a45524f5f41444452455353000081525060200191505060405180910390fd5b9250929050565b600080841161148e576040517f08c379a000000000000000000000000000000000000000000000000000000000815260040180806020018281038252602b8152602001806116cd602b913960400191505060405180910390fd5b60008311801561149e5750600082115b6114f3576040517f08c379a000000000000000000000000000000000000000000000000000000000815260040180806020018281038252602881526020018061163c6028913960400191505060405180910390fd5b600061150a6103e5866108df90919063ffffffff16565b9050600061152184836108df90919063ffffffff16565b9050600061154c8361153e6103e8896108df90919063ffffffff16565b61156490919063ffffffff16565b905080828161155757fe5b0493505050509392505050565b60008282840191508110156115e1576040517f08c379a00000000000000000000000000000000000000000000000000000000081526004018080602001828103825260148152602001807f64732d6d6174682d6164642d6f766572666c6f7700000000000000000000000081525060200191505060405180910390fd5b9291505056fe556e697377617056324c6962726172793a204944454e544943414c5f414444524553534553496e6b61556e697377617050726f76696465723a20494e53554646494349454e545f4f55545055545f414d4f554e54556e697377617056324c6962726172793a20494e53554646494349454e545f4c4951554944495459496e6b61556e697377617050726f76696465723a20494e56414c49445f50415448496e6b61556e697377617050726f76696465723a20504149525f4e4f545f4558495354496e6b61556e697377617050726f76696465723a20444541444c494e455f45585049524544556e697377617056324c6962726172793a20494e53554646494349454e545f494e5055545f414d4f554e54496e6b61556e697377617050726f76696465723a20494e53554646494349454e545f494e5055545f414d4f554e54a264697066735822122086fe29f9cf1f8631ba9ffdced4f4d4e39857446e1d5ea04a1c6df26ea3e059b164736f6c634300060c0033496e6b61556e697377617050726f76696465723a205a45524f5f464143544f52595f41444452455353496e6b61556e697377617050726f76696465723a205a45524f5f574554485f41444452455353",
  "immutableReferences": {},
  "source": "pragma solidity =0.6.12;\n\nimport \"./utils/Ownable.sol\";\nimport \"./eth/interfaces/IUniswapV2Factory.sol\";\nimport \"./eth/libraries/UniswapV2Library.sol\";\nimport './libraries/TransferHelper.sol';\nimport \"./eth/interfaces/IWETH.sol\";\nimport \"./eth/interfaces/IERC20.sol\";\nimport \"./libraries/SafeMath.sol\";\nimport \"./libraries/Convert.sol\";\n\ncontract InkaUniswapProvider {\n    using SafeMath for uint256;\n    using Convert for bytes;\n\n    event LOG_AGG_SWAP (\n        uint256 amountOut, \n        uint256 fee\n    );\n\n    address public WETH;\n    address public uniswapFactory;\n\n    uint256 public aggregatorFee = 3 * 10 ** 7;\n    uint256 public constant FEE_DENOMINATOR = 10 ** 10;\n\n    modifier deadlineCheck(uint deadline) {\n        require(deadline >= block.timestamp, 'InkaUniswapProvider: DEADLINE_EXPIRED');\n        _;\n    }\n\n    constructor (\n        address _weth,\n        address _factory\n    ) public {\n        require(_weth != address(0), \"InkaUniswapProvider: ZERO_WETH_ADDRESS\");\n        require(_factory != address(0), \"InkaUniswapProvider: ZERO_FACTORY_ADDRESS\");\n\n        WETH = _weth;\n        uniswapFactory = _factory;\n    }\n\n    function swapETHForTokensSupportingFee(\n        uint amountOutMin,\n        address[] calldata path,\n        address to,\n        uint deadline\n    ) external virtual payable deadlineCheck(deadline) {\n        uint amountOut = _swapETHForTokensSupportingFee(amountOutMin, path, 0);\n        uint feeAmount = amountOut.mul(aggregatorFee).div(FEE_DENOMINATOR);\n\n        emit LOG_AGG_SWAP(amountOut, feeAmount);\n\n        uint adjustedAmountOut = amountOut.sub(feeAmount);\n        TransferHelper.safeTransfer(path[path.length - 1], to, adjustedAmountOut);\n    }\n\n    function _swapETHForTokensSupportingFee(\n        uint amountOutMin,\n        address[] calldata path,\n        uint fee\n    ) internal virtual returns (uint) {\n        require(path[0] == WETH, 'InkaUniswapProvider: INVALID_PATH');\n        uint amountIn = msg.value.sub(fee);\n        require(amountIn > 0, 'InkaUniswapProvider: INSUFFICIENT_INPUT_AMOUNT');\n        IWETH(WETH).deposit{value: amountIn}();\n        assert(IWETH(WETH).transfer(UniswapV2Library.pairFor(uniswapFactory, path[0], path[1]), amountIn));\n        uint balanceBefore = IERC20(path[path.length - 1]).balanceOf(address(this));\n        _swapWithFeeTransferTokens(path, address(this));\n        uint amountOut = IERC20(path[path.length - 1]).balanceOf(address(this)).sub(balanceBefore);\n        require(amountOut >= amountOutMin, 'InkaUniswapProvider: INSUFFICIENT_OUTPUT_AMOUNT');\n        return amountOut;\n    }\n\n    function _swapWithFeeTransferTokens(address[] memory path, address _to) internal virtual {\n        for (uint i; i < path.length - 1; i++) {\n            (address input, address output) = (path[i], path[i + 1]);\n            (address token0,) = UniswapV2Library.sortTokens(input, output);\n            require(IUniswapV2Factory(uniswapFactory).getPair(input, output) != address(0), \"InkaUniswapProvider: PAIR_NOT_EXIST\");\n            IUniswapV2Pair pair = IUniswapV2Pair(UniswapV2Library.pairFor(uniswapFactory, input, output));\n            uint amountInput;\n            uint amountOutput;\n            {\n            (uint reserve0, uint reserve1,) = pair.getReserves();\n            (uint reserveInput, uint reserveOutput) = input == token0 ? (reserve0, reserve1) : (reserve1, reserve0);\n            amountInput = IERC20(input).balanceOf(address(pair)).sub(reserveInput);\n            amountOutput = UniswapV2Library.getAmountOut(amountInput, reserveInput, reserveOutput);\n            }\n            (uint amount0Out, uint amount1Out) = input == token0 ? (uint(0), amountOutput) : (amountOutput, uint(0));\n            address to = i < path.length - 2 ? UniswapV2Library.pairFor(uniswapFactory, output, path[i + 2]) : _to;\n            pair.swap(amount0Out, amount1Out, to, new bytes(0));\n        }\n    }\n\n}",
  "sourcePath": "/home/aibek/inka-wallet/inka-uniswap-provider/contracts/InkaUniswapProvider.sol",
  "compiler": {
    "name": "solc",
    "version": "0.6.12+commit.27d51765.Emscripten.clang"
  },
  "schemaVersion": "3.3.4",
  "updatedAt": "2021-06-10T14:32:07.342Z",
  "networkType": "ethereum",
  "devdoc": {
    "kind": "dev",
    "methods": {},
    "version": 1
  },
  "userdoc": {
    "kind": "user",
    "methods": {},
    "version": 1
  }
}