{
  "contractName": "InkaUniswapProvider",
  "abi": [
    {
      "inputs": [
        {
          "internalType": "address",
          "name": "_weth",
          "type": "address"
        },
        {
          "internalType": "address",
          "name": "_factory",
          "type": "address"
        }
      ],
      "stateMutability": "nonpayable",
      "type": "constructor"
    },
    {
      "anonymous": false,
      "inputs": [
        {
          "indexed": false,
          "internalType": "uint256",
          "name": "amountOut",
          "type": "uint256"
        },
        {
          "indexed": false,
          "internalType": "uint256",
          "name": "fee",
          "type": "uint256"
        }
      ],
      "name": "InkaSwapOperation",
      "type": "event"
    },
    {
      "anonymous": false,
      "inputs": [
        {
          "indexed": true,
          "internalType": "address",
          "name": "previousOwner",
          "type": "address"
        },
        {
          "indexed": true,
          "internalType": "address",
          "name": "newOwner",
          "type": "address"
        }
      ],
      "name": "OwnershipTransferred",
      "type": "event"
    },
    {
      "inputs": [],
      "name": "FEE_DENOMINATOR",
      "outputs": [
        {
          "internalType": "uint256",
          "name": "",
          "type": "uint256"
        }
      ],
      "stateMutability": "view",
      "type": "function",
      "constant": true
    },
    {
      "inputs": [],
      "name": "WETH",
      "outputs": [
        {
          "internalType": "address",
          "name": "",
          "type": "address"
        }
      ],
      "stateMutability": "view",
      "type": "function",
      "constant": true
    },
    {
      "inputs": [],
      "name": "owner",
      "outputs": [
        {
          "internalType": "address",
          "name": "",
          "type": "address"
        }
      ],
      "stateMutability": "view",
      "type": "function",
      "constant": true
    },
    {
      "inputs": [],
      "name": "providerFee",
      "outputs": [
        {
          "internalType": "uint256",
          "name": "",
          "type": "uint256"
        }
      ],
      "stateMutability": "view",
      "type": "function",
      "constant": true
    },
    {
      "inputs": [],
      "name": "renounceOwnership",
      "outputs": [],
      "stateMutability": "nonpayable",
      "type": "function"
    },
    {
      "inputs": [
        {
          "internalType": "address",
          "name": "newOwner",
          "type": "address"
        }
      ],
      "name": "transferOwnership",
      "outputs": [],
      "stateMutability": "nonpayable",
      "type": "function"
    },
    {
      "inputs": [],
      "name": "uniswapFactory",
      "outputs": [
        {
          "internalType": "address",
          "name": "",
          "type": "address"
        }
      ],
      "stateMutability": "view",
      "type": "function",
      "constant": true
    },
    {
      "stateMutability": "payable",
      "type": "receive",
      "payable": true
    },
    {
      "inputs": [
        {
          "internalType": "address",
          "name": "tokenA",
          "type": "address"
        },
        {
          "internalType": "address",
          "name": "tokenB",
          "type": "address"
        },
        {
          "internalType": "uint256",
          "name": "amountADesired",
          "type": "uint256"
        },
        {
          "internalType": "uint256",
          "name": "amountBDesired",
          "type": "uint256"
        },
        {
          "internalType": "uint256",
          "name": "amountAMin",
          "type": "uint256"
        },
        {
          "internalType": "uint256",
          "name": "amountBMin",
          "type": "uint256"
        },
        {
          "internalType": "address",
          "name": "to",
          "type": "address"
        },
        {
          "internalType": "uint256",
          "name": "deadline",
          "type": "uint256"
        }
      ],
      "name": "addLiquidity",
      "outputs": [
        {
          "internalType": "uint256",
          "name": "amountA",
          "type": "uint256"
        },
        {
          "internalType": "uint256",
          "name": "amountB",
          "type": "uint256"
        },
        {
          "internalType": "uint256",
          "name": "liquidity",
          "type": "uint256"
        }
      ],
      "stateMutability": "nonpayable",
      "type": "function"
    },
    {
      "inputs": [
        {
          "internalType": "address",
          "name": "token",
          "type": "address"
        },
        {
          "internalType": "uint256",
          "name": "amountTokenDesired",
          "type": "uint256"
        },
        {
          "internalType": "uint256",
          "name": "amountTokenMin",
          "type": "uint256"
        },
        {
          "internalType": "uint256",
          "name": "amountETHMin",
          "type": "uint256"
        },
        {
          "internalType": "address",
          "name": "to",
          "type": "address"
        },
        {
          "internalType": "uint256",
          "name": "deadline",
          "type": "uint256"
        }
      ],
      "name": "addLiquidityETH",
      "outputs": [
        {
          "internalType": "uint256",
          "name": "amountToken",
          "type": "uint256"
        },
        {
          "internalType": "uint256",
          "name": "amountETH",
          "type": "uint256"
        },
        {
          "internalType": "uint256",
          "name": "liquidity",
          "type": "uint256"
        }
      ],
      "stateMutability": "payable",
      "type": "function",
      "payable": true
    },
    {
      "inputs": [
        {
          "internalType": "uint256",
          "name": "amountIn",
          "type": "uint256"
        },
        {
          "internalType": "uint256",
          "name": "swapAmountOutMin",
          "type": "uint256"
        },
        {
          "internalType": "address[]",
          "name": "path",
          "type": "address[]"
        },
        {
          "internalType": "address",
          "name": "to",
          "type": "address"
        },
        {
          "internalType": "uint256",
          "name": "deadline",
          "type": "uint256"
        }
      ],
      "name": "swapTokensForETHSupportingFee",
      "outputs": [],
      "stateMutability": "nonpayable",
      "type": "function"
    },
    {
      "inputs": [
        {
          "internalType": "uint256",
          "name": "amountIn",
          "type": "uint256"
        },
        {
          "internalType": "uint256",
          "name": "swapAmountOutMin",
          "type": "uint256"
        },
        {
          "internalType": "address[]",
          "name": "path",
          "type": "address[]"
        },
        {
          "internalType": "address",
          "name": "to",
          "type": "address"
        },
        {
          "internalType": "uint256",
          "name": "deadline",
          "type": "uint256"
        }
      ],
      "name": "swapTokensForTokensSupportingFee",
      "outputs": [],
      "stateMutability": "nonpayable",
      "type": "function"
    },
    {
      "inputs": [
        {
          "internalType": "uint256",
          "name": "amountOutMin",
          "type": "uint256"
        },
        {
          "internalType": "address[]",
          "name": "path",
          "type": "address[]"
        },
        {
          "internalType": "address",
          "name": "to",
          "type": "address"
        },
        {
          "internalType": "uint256",
          "name": "deadline",
          "type": "uint256"
        }
      ],
      "name": "swapETHForTokensSupportingFee",
      "outputs": [],
      "stateMutability": "payable",
      "type": "function",
      "payable": true
    },
    {
      "inputs": [
        {
          "internalType": "address",
          "name": "token",
          "type": "address"
        }
      ],
      "name": "withdraw",
      "outputs": [],
      "stateMutability": "nonpayable",
      "type": "function"
    },
    {
      "inputs": [
        {
          "internalType": "uint256",
          "name": "_fee",
          "type": "uint256"
        }
      ],
      "name": "setFee",
      "outputs": [],
      "stateMutability": "nonpayable",
      "type": "function"
    },
    {
      "inputs": [
        {
          "internalType": "address",
          "name": "_factory",
          "type": "address"
        }
      ],
      "name": "setUniswapFactory",
      "outputs": [],
      "stateMutability": "nonpayable",
      "type": "function"
    }
  ],
  "bytecode": "0x60806040526301c9c3806003553480156200001957600080fd5b506040516200437838038062004378833981810160405260408110156200003f57600080fd5b81019080805190602001909291908051906020019092919050505060006200006c620002a460201b60201c565b9050806000806101000a81548173ffffffffffffffffffffffffffffffffffffffff021916908373ffffffffffffffffffffffffffffffffffffffff1602179055508073ffffffffffffffffffffffffffffffffffffffff16600073ffffffffffffffffffffffffffffffffffffffff167f8be0079c531659141344cd1fd0a4f28419497f9722a3daafe3b4186f6b6457e060405160405180910390a350600073ffffffffffffffffffffffffffffffffffffffff168273ffffffffffffffffffffffffffffffffffffffff16141562000192576040517f08c379a0000000000000000000000000000000000000000000000000000000008152600401808060200182810382526026815260200180620043526026913960400191505060405180910390fd5b600073ffffffffffffffffffffffffffffffffffffffff168173ffffffffffffffffffffffffffffffffffffffff1614156200021a576040517f08c379a0000000000000000000000000000000000000000000000000000000008152600401808060200182810382526029815260200180620043296029913960400191505060405180910390fd5b81600160006101000a81548173ffffffffffffffffffffffffffffffffffffffff021916908373ffffffffffffffffffffffffffffffffffffffff16021790555080600260006101000a81548173ffffffffffffffffffffffffffffffffffffffff021916908373ffffffffffffffffffffffffffffffffffffffff1602179055505050620002ac565b600033905090565b61406d80620002bc6000396000f3fe6080604052600436106100ec5760003560e01c8063ad5c46481161008a578063e04b677f11610059578063e04b677f146104e9578063e8e337001461053a578063f2fde38b14610620578063f305d71914610671576100f3565b8063ad5c4648146103a5578063c21a6457146103e6578063c6e983d914610493578063d73792a9146104be576100f3565b8063715018a6116100c6578063715018a6146102485780638bdb2afa1461025f5780638da5cb5b146102a057806393f75661146102e1576100f3565b806317c9bfc6146100f857806351cff8d9146101bc57806369fe0e2d1461020d576100f3565b366100f357005b600080fd5b34801561010457600080fd5b506101ba600480360360a081101561011b57600080fd5b8101908080359060200190929190803590602001909291908035906020019064010000000081111561014c57600080fd5b82018360208201111561015e57600080fd5b8035906020019184602083028401116401000000008311171561018057600080fd5b9091929391929390803573ffffffffffffffffffffffffffffffffffffffff1690602001909291908035906020019092919050505061071f565b005b3480156101c857600080fd5b5061020b600480360360208110156101df57600080fd5b81019080803573ffffffffffffffffffffffffffffffffffffffff169060200190929190505050610854565b005b34801561021957600080fd5b506102466004803603602081101561023057600080fd5b8101908080359060200190929190505050610ab5565b005b34801561025457600080fd5b5061025d610b87565b005b34801561026b57600080fd5b50610274610d0d565b604051808273ffffffffffffffffffffffffffffffffffffffff16815260200191505060405180910390f35b3480156102ac57600080fd5b506102b5610d33565b604051808273ffffffffffffffffffffffffffffffffffffffff16815260200191505060405180910390f35b3480156102ed57600080fd5b506103a3600480360360a081101561030457600080fd5b8101908080359060200190929190803590602001909291908035906020019064010000000081111561033557600080fd5b82018360208201111561034757600080fd5b8035906020019184602083028401116401000000008311171561036957600080fd5b9091929391929390803573ffffffffffffffffffffffffffffffffffffffff16906020019092919080359060200190929190505050610d5c565b005b3480156103b157600080fd5b506103ba610eef565b604051808273ffffffffffffffffffffffffffffffffffffffff16815260200191505060405180910390f35b610491600480360360808110156103fc57600080fd5b81019080803590602001909291908035906020019064010000000081111561042357600080fd5b82018360208201111561043557600080fd5b8035906020019184602083028401116401000000008311171561045757600080fd5b9091929391929390803573ffffffffffffffffffffffffffffffffffffffff16906020019092919080359060200190929190505050610f15565b005b34801561049f57600080fd5b506104a861104a565b6040518082815260200191505060405180910390f35b3480156104ca57600080fd5b506104d3611050565b6040518082815260200191505060405180910390f35b3480156104f557600080fd5b506105386004803603602081101561050c57600080fd5b81019080803573ffffffffffffffffffffffffffffffffffffffff169060200190929190505050611059565b005b34801561054657600080fd5b506105fc600480360361010081101561055e57600080fd5b81019080803573ffffffffffffffffffffffffffffffffffffffff169060200190929190803573ffffffffffffffffffffffffffffffffffffffff16906020019092919080359060200190929190803590602001909291908035906020019092919080359060200190929190803573ffffffffffffffffffffffffffffffffffffffff16906020019092919080359060200190929190505050611165565b60405180848152602001838152602001828152602001935050505060405180910390f35b34801561062c57600080fd5b5061066f6004803603602081101561064357600080fd5b81019080803573ffffffffffffffffffffffffffffffffffffffff1690602001909291905050506111fc565b005b6106fb600480360360c081101561068757600080fd5b81019080803573ffffffffffffffffffffffffffffffffffffffff169060200190929190803590602001909291908035906020019092919080359060200190929190803573ffffffffffffffffffffffffffffffffffffffff16906020019092919080359060200190929190505050611407565b60405180848152602001838152602001828152602001935050505060405180910390f35b8042811015610779576040517f08c379a0000000000000000000000000000000000000000000000000000000008152600401808060200182810382526025815260200180613f6c6025913960400191505060405180910390fd5b6000610787888888886114bf565b905060006107b76402540be4006107a9600354856117df90919063ffffffff16565b61187490919063ffffffff16565b90507f84e43bf9ecccdafe2f6b63816addc086de62847bfc2aa8e17186e7cb589eb6798282604051808381526020018281526020019250505060405180910390a1600061080d828461188890919063ffffffff16565b9050610848888860018b8b90500381811061082457fe5b9050602002013573ffffffffffffffffffffffffffffffffffffffff16878361190b565b50505050505050505050565b600160009054906101000a900473ffffffffffffffffffffffffffffffffffffffff1673ffffffffffffffffffffffffffffffffffffffff168173ffffffffffffffffffffffffffffffffffffffff1614156109fe5760008173ffffffffffffffffffffffffffffffffffffffff166370a08231306040518263ffffffff1660e01b8152600401808273ffffffffffffffffffffffffffffffffffffffff16815260200191505060206040518083038186803b15801561091357600080fd5b505afa158015610927573d6000803e3d6000fd5b505050506040513d602081101561093d57600080fd5b8101908080519060200190929190505050905060008111156109e757600160009054906101000a900473ffffffffffffffffffffffffffffffffffffffff1673ffffffffffffffffffffffffffffffffffffffff16632e1a7d4d826040518263ffffffff1660e01b815260040180828152602001915050600060405180830381600087803b1580156109ce57600080fd5b505af11580156109e2573d6000803e3d6000fd5b505050505b6109f86109f2610d33565b47611aee565b50610ab2565b610ab181610a0a610d33565b8373ffffffffffffffffffffffffffffffffffffffff166370a08231306040518263ffffffff1660e01b8152600401808273ffffffffffffffffffffffffffffffffffffffff16815260200191505060206040518083038186803b158015610a7157600080fd5b505afa158015610a85573d6000803e3d6000fd5b505050506040513d6020811015610a9b57600080fd5b810190808051906020019092919050505061190b565b5b50565b610abd611c4d565b73ffffffffffffffffffffffffffffffffffffffff1660008054906101000a900473ffffffffffffffffffffffffffffffffffffffff1673ffffffffffffffffffffffffffffffffffffffff1614610b7d576040517f08c379a00000000000000000000000000000000000000000000000000000000081526004018080602001828103825260208152602001807f4f776e61626c653a2063616c6c6572206973206e6f7420746865206f776e657281525060200191505060405180910390fd5b8060038190555050565b610b8f611c4d565b73ffffffffffffffffffffffffffffffffffffffff1660008054906101000a900473ffffffffffffffffffffffffffffffffffffffff1673ffffffffffffffffffffffffffffffffffffffff1614610c4f576040517f08c379a00000000000000000000000000000000000000000000000000000000081526004018080602001828103825260208152602001807f4f776e61626c653a2063616c6c6572206973206e6f7420746865206f776e657281525060200191505060405180910390fd5b600073ffffffffffffffffffffffffffffffffffffffff1660008054906101000a900473ffffffffffffffffffffffffffffffffffffffff1673ffffffffffffffffffffffffffffffffffffffff167f8be0079c531659141344cd1fd0a4f28419497f9722a3daafe3b4186f6b6457e060405160405180910390a360008060006101000a81548173ffffffffffffffffffffffffffffffffffffffff021916908373ffffffffffffffffffffffffffffffffffffffff160217905550565b600260009054906101000a900473ffffffffffffffffffffffffffffffffffffffff1681565b60008060009054906101000a900473ffffffffffffffffffffffffffffffffffffffff16905090565b8042811015610db6576040517f08c379a0000000000000000000000000000000000000000000000000000000008152600401808060200182810382526025815260200180613f6c6025913960400191505060405180910390fd5b6000610dc488888888611c55565b90506000610df46402540be400610de6600354856117df90919063ffffffff16565b61187490919063ffffffff16565b90507f84e43bf9ecccdafe2f6b63816addc086de62847bfc2aa8e17186e7cb589eb6798282604051808381526020018281526020019250505060405180910390a1600160009054906101000a900473ffffffffffffffffffffffffffffffffffffffff1673ffffffffffffffffffffffffffffffffffffffff16632e1a7d4d836040518263ffffffff1660e01b815260040180828152602001915050600060405180830381600087803b158015610eaa57600080fd5b505af1158015610ebe573d6000803e3d6000fd5b505050506000610ed7828461188890919063ffffffff16565b9050610ee38682611aee565b50505050505050505050565b600160009054906101000a900473ffffffffffffffffffffffffffffffffffffffff1681565b8042811015610f6f576040517f08c379a0000000000000000000000000000000000000000000000000000000008152600401808060200182810382526025815260200180613f6c6025913960400191505060405180910390fd5b6000610f7e8787876000612031565b90506000610fae6402540be400610fa0600354856117df90919063ffffffff16565b61187490919063ffffffff16565b90507f84e43bf9ecccdafe2f6b63816addc086de62847bfc2aa8e17186e7cb589eb6798282604051808381526020018281526020019250505060405180910390a16000611004828461188890919063ffffffff16565b905061103f888860018b8b90500381811061101b57fe5b9050602002013573ffffffffffffffffffffffffffffffffffffffff16878361190b565b505050505050505050565b60035481565b6402540be40081565b611061611c4d565b73ffffffffffffffffffffffffffffffffffffffff1660008054906101000a900473ffffffffffffffffffffffffffffffffffffffff1673ffffffffffffffffffffffffffffffffffffffff1614611121576040517f08c379a00000000000000000000000000000000000000000000000000000000081526004018080602001828103825260208152602001807f4f776e61626c653a2063616c6c6572206973206e6f7420746865206f776e657281525060200191505060405180910390fd5b80600260006101000a81548173ffffffffffffffffffffffffffffffffffffffff021916908373ffffffffffffffffffffffffffffffffffffffff16021790555050565b600080600083428110156111c4576040517f08c379a0000000000000000000000000000000000000000000000000000000008152600401808060200182810382526025815260200180613f6c6025913960400191505060405180910390fd5b6111d28c8c8c8c8c8c6125b3565b80945081955050506111e78c8c86868a612880565b93509350935050985098509895505050505050565b611204611c4d565b73ffffffffffffffffffffffffffffffffffffffff1660008054906101000a900473ffffffffffffffffffffffffffffffffffffffff1673ffffffffffffffffffffffffffffffffffffffff16146112c4576040517f08c379a00000000000000000000000000000000000000000000000000000000081526004018080602001828103825260208152602001807f4f776e61626c653a2063616c6c6572206973206e6f7420746865206f776e657281525060200191505060405180910390fd5b600073ffffffffffffffffffffffffffffffffffffffff168173ffffffffffffffffffffffffffffffffffffffff16141561134a576040517f08c379a0000000000000000000000000000000000000000000000000000000008152600401808060200182810382526026815260200180613deb6026913960400191505060405180910390fd5b8073ffffffffffffffffffffffffffffffffffffffff1660008054906101000a900473ffffffffffffffffffffffffffffffffffffffff1673ffffffffffffffffffffffffffffffffffffffff167f8be0079c531659141344cd1fd0a4f28419497f9722a3daafe3b4186f6b6457e060405160405180910390a3806000806101000a81548173ffffffffffffffffffffffffffffffffffffffff021916908373ffffffffffffffffffffffffffffffffffffffff16021790555050565b60008060008342811015611466576040517f08c379a0000000000000000000000000000000000000000000000000000000008152600401808060200182810382526025815260200180613f6c6025913960400191505060405180910390fd5b6114968a600160009054906101000a900473ffffffffffffffffffffffffffffffffffffffff168b348c8c6125b3565b80945081955050506114ac8a85858b8b8b612a0b565b9350935093505096509650969350505050565b6000611574838360008181106114d157fe5b9050602002013573ffffffffffffffffffffffffffffffffffffffff163361156e600260009054906101000a900473ffffffffffffffffffffffffffffffffffffffff168787600081811061152257fe5b9050602002013573ffffffffffffffffffffffffffffffffffffffff168888600181811061154c57fe5b9050602002013573ffffffffffffffffffffffffffffffffffffffff16612fd4565b886130ed565b600083836001868690500381811061158857fe5b9050602002013573ffffffffffffffffffffffffffffffffffffffff1673ffffffffffffffffffffffffffffffffffffffff166370a08231306040518263ffffffff1660e01b8152600401808273ffffffffffffffffffffffffffffffffffffffff16815260200191505060206040518083038186803b15801561160b57600080fd5b505afa15801561161f573d6000803e3d6000fd5b505050506040513d602081101561163557600080fd5b81019080805190602001909291905050509050611693848480806020026020016040519081016040528093929190818152602001838360200280828437600081840152601f19601f82011690508083019250505050505050306132d2565b6000611777828686600189899050038181106116ab57fe5b9050602002013573ffffffffffffffffffffffffffffffffffffffff1673ffffffffffffffffffffffffffffffffffffffff166370a08231306040518263ffffffff1660e01b8152600401808273ffffffffffffffffffffffffffffffffffffffff16815260200191505060206040518083038186803b15801561172e57600080fd5b505afa158015611742573d6000803e3d6000fd5b505050506040513d602081101561175857600080fd5b810190808051906020019092919050505061188890919063ffffffff16565b9050858110156117d2576040517f08c379a000000000000000000000000000000000000000000000000000000000815260040180806020018281038252602f815260200180613e89602f913960400191505060405180910390fd5b8092505050949350505050565b6000808214806117fc57508282838502925082816117f957fe5b04145b61186e576040517f08c379a00000000000000000000000000000000000000000000000000000000081526004018080602001828103825260148152602001807f64732d6d6174682d6d756c2d6f766572666c6f7700000000000000000000000081525060200191505060405180910390fd5b92915050565b600081838161187f57fe5b04905092915050565b6000828284039150811115611905576040517f08c379a00000000000000000000000000000000000000000000000000000000081526004018080602001828103825260158152602001807f64732d6d6174682d7375622d756e646572666c6f77000000000000000000000081525060200191505060405180910390fd5b92915050565b600060608473ffffffffffffffffffffffffffffffffffffffff1663a9059cbb8585604051602401808373ffffffffffffffffffffffffffffffffffffffff168152602001828152602001925050506040516020818303038152906040529060e01b6020820180517bffffffffffffffffffffffffffffffffffffffffffffffffffffffff83818316178352505050506040518082805190602001908083835b602083106119ce57805182526020820191506020810190506020830392506119ab565b6001836020036101000a0380198251168184511680821785525050505050509050019150506000604051808303816000865af19150503d8060008114611a30576040519150601f19603f3d011682016040523d82523d6000602084013e611a35565b606091505b5091509150818015611a755750600081511480611a745750808060200190516020811015611a6257600080fd5b81019080805190602001909291905050505b5b611ae7576040517f08c379a000000000000000000000000000000000000000000000000000000000815260040180806020018281038252601f8152602001807f5472616e7366657248656c7065723a205452414e534645525f4641494c45440081525060200191505060405180910390fd5b5050505050565b60008273ffffffffffffffffffffffffffffffffffffffff1682600067ffffffffffffffff81118015611b2057600080fd5b506040519080825280601f01601f191660200182016040528015611b535781602001600182028036833780820191505090505b506040518082805190602001908083835b60208310611b875780518252602082019150602081019050602083039250611b64565b6001836020036101000a03801982511681845116808217855250505050505090500191505060006040518083038185875af1925050503d8060008114611be9576040519150601f19603f3d011682016040523d82523d6000602084013e611bee565b606091505b5050905080611c48576040517f08c379a0000000000000000000000000000000000000000000000000000000008152600401808060200182810382526023815260200180613f266023913960400191505060405180910390fd5b505050565b600033905090565b6000600160009054906101000a900473ffffffffffffffffffffffffffffffffffffffff1673ffffffffffffffffffffffffffffffffffffffff16838360018686905003818110611ca257fe5b9050602002013573ffffffffffffffffffffffffffffffffffffffff1673ffffffffffffffffffffffffffffffffffffffff1614611d2b576040517f08c379a0000000000000000000000000000000000000000000000000000000008152600401808060200182810382526021815260200180613f056021913960400191505060405180910390fd5b611dde83836000818110611d3b57fe5b9050602002013573ffffffffffffffffffffffffffffffffffffffff1633611dd8600260009054906101000a900473ffffffffffffffffffffffffffffffffffffffff1687876000818110611d8c57fe5b9050602002013573ffffffffffffffffffffffffffffffffffffffff1688886001818110611db657fe5b9050602002013573ffffffffffffffffffffffffffffffffffffffff16612fd4565b886130ed565b6000600160009054906101000a900473ffffffffffffffffffffffffffffffffffffffff1673ffffffffffffffffffffffffffffffffffffffff166370a08231306040518263ffffffff1660e01b8152600401808273ffffffffffffffffffffffffffffffffffffffff16815260200191505060206040518083038186803b158015611e6957600080fd5b505afa158015611e7d573d6000803e3d6000fd5b505050506040513d6020811015611e9357600080fd5b81019080805190602001909291905050509050611ef1848480806020026020016040519081016040528093929190818152602001838360200280828437600081840152601f19601f82011690508083019250505050505050306132d2565b6000611fc982600160009054906101000a900473ffffffffffffffffffffffffffffffffffffffff1673ffffffffffffffffffffffffffffffffffffffff166370a08231306040518263ffffffff1660e01b8152600401808273ffffffffffffffffffffffffffffffffffffffff16815260200191505060206040518083038186803b158015611f8057600080fd5b505afa158015611f94573d6000803e3d6000fd5b505050506040513d6020811015611faa57600080fd5b810190808051906020019092919050505061188890919063ffffffff16565b905085811015612024576040517f08c379a000000000000000000000000000000000000000000000000000000000815260040180806020018281038252602f815260200180613e89602f913960400191505060405180910390fd5b8092505050949350505050565b6000600160009054906101000a900473ffffffffffffffffffffffffffffffffffffffff1673ffffffffffffffffffffffffffffffffffffffff168484600081811061207957fe5b9050602002013573ffffffffffffffffffffffffffffffffffffffff1673ffffffffffffffffffffffffffffffffffffffff1614612102576040517f08c379a0000000000000000000000000000000000000000000000000000000008152600401808060200182810382526021815260200180613f056021913960400191505060405180910390fd5b6000612117833461188890919063ffffffff16565b905060008111612172576040517f08c379a000000000000000000000000000000000000000000000000000000000815260040180806020018281038252602e81526020018061400a602e913960400191505060405180910390fd5b600160009054906101000a900473ffffffffffffffffffffffffffffffffffffffff1673ffffffffffffffffffffffffffffffffffffffff1663d0e30db0826040518263ffffffff1660e01b81526004016000604051808303818588803b1580156121dc57600080fd5b505af11580156121f0573d6000803e3d6000fd5b5050505050600160009054906101000a900473ffffffffffffffffffffffffffffffffffffffff1673ffffffffffffffffffffffffffffffffffffffff1663a9059cbb6122b2600260009054906101000a900473ffffffffffffffffffffffffffffffffffffffff168888600081811061226657fe5b9050602002013573ffffffffffffffffffffffffffffffffffffffff168989600181811061229057fe5b9050602002013573ffffffffffffffffffffffffffffffffffffffff16612fd4565b836040518363ffffffff1660e01b8152600401808373ffffffffffffffffffffffffffffffffffffffff16815260200182815260200192505050602060405180830381600087803b15801561230657600080fd5b505af115801561231a573d6000803e3d6000fd5b505050506040513d602081101561233057600080fd5b810190808051906020019092919050505061234757fe5b600085856001888890500381811061235b57fe5b9050602002013573ffffffffffffffffffffffffffffffffffffffff1673ffffffffffffffffffffffffffffffffffffffff166370a08231306040518263ffffffff1660e01b8152600401808273ffffffffffffffffffffffffffffffffffffffff16815260200191505060206040518083038186803b1580156123de57600080fd5b505afa1580156123f2573d6000803e3d6000fd5b505050506040513d602081101561240857600080fd5b81019080805190602001909291905050509050612466868680806020026020016040519081016040528093929190818152602001838360200280828437600081840152601f19601f82011690508083019250505050505050306132d2565b600061254a82888860018b8b90500381811061247e57fe5b9050602002013573ffffffffffffffffffffffffffffffffffffffff1673ffffffffffffffffffffffffffffffffffffffff166370a08231306040518263ffffffff1660e01b8152600401808273ffffffffffffffffffffffffffffffffffffffff16815260200191505060206040518083038186803b15801561250157600080fd5b505afa158015612515573d6000803e3d6000fd5b505050506040513d602081101561252b57600080fd5b810190808051906020019092919050505061188890919063ffffffff16565b9050878110156125a5576040517f08c379a000000000000000000000000000000000000000000000000000000000815260040180806020018281038252602f815260200180613e89602f913960400191505060405180910390fd5b809350505050949350505050565b600080600073ffffffffffffffffffffffffffffffffffffffff16600260009054906101000a900473ffffffffffffffffffffffffffffffffffffffff1673ffffffffffffffffffffffffffffffffffffffff1663e6a439058a8a6040518363ffffffff1660e01b8152600401808373ffffffffffffffffffffffffffffffffffffffff1681526020018273ffffffffffffffffffffffffffffffffffffffff1681526020019250505060206040518083038186803b15801561267557600080fd5b505afa158015612689573d6000803e3d6000fd5b505050506040513d602081101561269f57600080fd5b810190808051906020019092919050505073ffffffffffffffffffffffffffffffffffffffff16141561271d576040517f08c379a0000000000000000000000000000000000000000000000000000000008152600401808060200182810382526023815260200180613f496023913960400191505060405180910390fd5b60008061274d600260009054906101000a900473ffffffffffffffffffffffffffffffffffffffff168b8b613888565b915091506000821480156127615750600081145b156127755787878094508195505050612873565b60006127828984846139b1565b90508781116127f357858110156127e4576040517f08c379a000000000000000000000000000000000000000000000000000000000815260040180806020018281038252602a815260200180613fe0602a913960400191505060405180910390fd5b88818095508196505050612871565b60006128008984866139b1565b90508981111561280c57fe5b87811015612865576040517f08c379a000000000000000000000000000000000000000000000000000000000815260040180806020018281038252602a815260200180613e11602a913960400191505060405180910390fd5b80898096508197505050505b505b5050965096945050505050565b6000806000806128b26402540be4006128a46003548a6117df90919063ffffffff16565b61187490919063ffffffff16565b905060006128e26402540be4006128d46003548a6117df90919063ffffffff16565b61187490919063ffffffff16565b90506128f7828961188890919063ffffffff16565b945061290c818861188890919063ffffffff16565b9350600061293d600260009054906101000a900473ffffffffffffffffffffffffffffffffffffffff168c8c612fd4565b905061294b8b3383896130ed565b6129578a3383886130ed565b8073ffffffffffffffffffffffffffffffffffffffff16636a627842886040518263ffffffff1660e01b8152600401808273ffffffffffffffffffffffffffffffffffffffff168152602001915050602060405180830381600087803b1580156129c057600080fd5b505af11580156129d4573d6000803e3d6000fd5b505050506040513d60208110156129ea57600080fd5b81019080805190602001909291905050509350505050955095509592505050565b6000806000878973ffffffffffffffffffffffffffffffffffffffff166370a08231336040518263ffffffff1660e01b8152600401808273ffffffffffffffffffffffffffffffffffffffff16815260200191505060206040518083038186803b158015612a7857600080fd5b505afa158015612a8c573d6000803e3d6000fd5b505050506040513d6020811015612aa257600080fd5b81019080805190602001909291905050501015612b0a576040517f08c379a0000000000000000000000000000000000000000000000000000000008152600401808060200182810382526029815260200180613e606029913960400191505060405180910390fd5b878973ffffffffffffffffffffffffffffffffffffffff1663dd62ed3e33306040518363ffffffff1660e01b8152600401808373ffffffffffffffffffffffffffffffffffffffff1681526020018273ffffffffffffffffffffffffffffffffffffffff1681526020019250505060206040518083038186803b158015612b9057600080fd5b505afa158015612ba4573d6000803e3d6000fd5b505050506040513d6020811015612bba57600080fd5b81019080805190602001909291905050501015612c22576040517f08c379a000000000000000000000000000000000000000000000000000000000815260040180806020018281038252602b815260200180613dc0602b913960400191505060405180910390fd5b612c2e8933308b6130ed565b6000612c5c6402540be400612c4e6003548c6117df90919063ffffffff16565b61187490919063ffffffff16565b90506000612c8c6402540be400612c7e6003548c6117df90919063ffffffff16565b61187490919063ffffffff16565b9050612ca1828b61188890919063ffffffff16565b9450612cb6818a61188890919063ffffffff16565b935087851015612d11576040517f08c379a000000000000000000000000000000000000000000000000000000000815260040180806020018281038252602f815260200180613e89602f913960400191505060405180910390fd5b86841015612d6a576040517f08c379a000000000000000000000000000000000000000000000000000000000815260040180806020018281038252602f815260200180613e89602f913960400191505060405180910390fd5b6000612dbb600260009054906101000a900473ffffffffffffffffffffffffffffffffffffffff168d600160009054906101000a900473ffffffffffffffffffffffffffffffffffffffff16612fd4565b9050612dc88c828861190b565b600160009054906101000a900473ffffffffffffffffffffffffffffffffffffffff1673ffffffffffffffffffffffffffffffffffffffff1663d0e30db0866040518263ffffffff1660e01b81526004016000604051808303818588803b158015612e3257600080fd5b505af1158015612e46573d6000803e3d6000fd5b5050505050600160009054906101000a900473ffffffffffffffffffffffffffffffffffffffff1673ffffffffffffffffffffffffffffffffffffffff1663a9059cbb82876040518363ffffffff1660e01b8152600401808373ffffffffffffffffffffffffffffffffffffffff16815260200182815260200192505050602060405180830381600087803b158015612ede57600080fd5b505af1158015612ef2573d6000803e3d6000fd5b505050506040513d6020811015612f0857600080fd5b8101908080519060200190929190505050612f1f57fe5b8073ffffffffffffffffffffffffffffffffffffffff16636a627842886040518263ffffffff1660e01b8152600401808273ffffffffffffffffffffffffffffffffffffffff168152602001915050602060405180830381600087803b158015612f8857600080fd5b505af1158015612f9c573d6000803e3d6000fd5b505050506040513d6020811015612fb257600080fd5b8101908080519060200190929190505050935050505096509650969350505050565b6000806000612fe38585613a95565b91509150858282604051602001808373ffffffffffffffffffffffffffffffffffffffff1660601b81526014018273ffffffffffffffffffffffffffffffffffffffff1660601b8152601401925050506040516020818303038152906040528051906020012060405160200180807fff000000000000000000000000000000000000000000000000000000000000008152506001018373ffffffffffffffffffffffffffffffffffffffff1660601b8152601401828152602001807f96e8ac4277198ff8b6f785478aa9a39f403cb768dd02cbee326c3e7da348845f815250602001925050506040516020818303038152906040528051906020012060001c925050509392505050565b600060608573ffffffffffffffffffffffffffffffffffffffff166323b872dd868686604051602401808473ffffffffffffffffffffffffffffffffffffffff1681526020018373ffffffffffffffffffffffffffffffffffffffff16815260200182815260200193505050506040516020818303038152906040529060e01b6020820180517bffffffffffffffffffffffffffffffffffffffffffffffffffffffff83818316178352505050506040518082805190602001908083835b602083106131ce57805182526020820191506020810190506020830392506131ab565b6001836020036101000a0380198251168184511680821785525050505050509050019150506000604051808303816000865af19150503d8060008114613230576040519150601f19603f3d011682016040523d82523d6000602084013e613235565b606091505b50915091508180156132755750600081511480613274575080806020019051602081101561326257600080fd5b81019080805190602001909291905050505b5b6132ca576040517f08c379a0000000000000000000000000000000000000000000000000000000008152600401808060200182810382526024815260200180613f916024913960400191505060405180910390fd5b505050505050565b60005b6001835103811015613883576000808483815181106132f057fe5b602002602001015185600185018151811061330757fe5b602002602001015191509150600061331f8383613a95565b509050600073ffffffffffffffffffffffffffffffffffffffff16600260009054906101000a900473ffffffffffffffffffffffffffffffffffffffff1673ffffffffffffffffffffffffffffffffffffffff1663e6a4390585856040518363ffffffff1660e01b8152600401808373ffffffffffffffffffffffffffffffffffffffff1681526020018273ffffffffffffffffffffffffffffffffffffffff1681526020019250505060206040518083038186803b1580156133e157600080fd5b505afa1580156133f5573d6000803e3d6000fd5b505050506040513d602081101561340b57600080fd5b810190808051906020019092919050505073ffffffffffffffffffffffffffffffffffffffff161415613489576040517f08c379a0000000000000000000000000000000000000000000000000000000008152600401808060200182810382526023815260200180613f496023913960400191505060405180910390fd5b60006134b8600260009054906101000a900473ffffffffffffffffffffffffffffffffffffffff168585612fd4565b90506000806000808473ffffffffffffffffffffffffffffffffffffffff16630902f1ac6040518163ffffffff1660e01b815260040160606040518083038186803b15801561350657600080fd5b505afa15801561351a573d6000803e3d6000fd5b505050506040513d606081101561353057600080fd5b81019080805190602001909291908051906020019092919080519060200190929190505050506dffffffffffffffffffffffffffff1691506dffffffffffffffffffffffffffff1691506000808773ffffffffffffffffffffffffffffffffffffffff168a73ffffffffffffffffffffffffffffffffffffffff16146135b75782846135ba565b83835b91509150613672828b73ffffffffffffffffffffffffffffffffffffffff166370a082318a6040518263ffffffff1660e01b8152600401808273ffffffffffffffffffffffffffffffffffffffff16815260200191505060206040518083038186803b15801561362957600080fd5b505afa15801561363d573d6000803e3d6000fd5b505050506040513d602081101561365357600080fd5b810190808051906020019092919050505061188890919063ffffffff16565b955061367f868383613c0c565b9450505050506000808573ffffffffffffffffffffffffffffffffffffffff168873ffffffffffffffffffffffffffffffffffffffff16146136c3578260006136c7565b6000835b91509150600060028c51038a106136de578a613722565b613721600260009054906101000a900473ffffffffffffffffffffffffffffffffffffffff16898e60028e018151811061371457fe5b6020026020010151612fd4565b5b90508573ffffffffffffffffffffffffffffffffffffffff1663022c0d9f848484600067ffffffffffffffff8111801561375b57600080fd5b506040519080825280601f01601f19166020018201604052801561378e5781602001600182028036833780820191505090505b506040518563ffffffff1660e01b8152600401808581526020018481526020018373ffffffffffffffffffffffffffffffffffffffff16815260200180602001828103825283818151815260200191508051906020019080838360005b838110156138065780820151818401526020810190506137eb565b50505050905090810190601f1680156138335780820380516001836020036101000a031916815260200191505b5095505050505050600060405180830381600087803b15801561385557600080fd5b505af1158015613869573d6000803e3d6000fd5b5050505050505050505050505080806001019150506132d5565b505050565b60008060006138978585613a95565b5090506000806138a8888888612fd4565b73ffffffffffffffffffffffffffffffffffffffff16630902f1ac6040518163ffffffff1660e01b815260040160606040518083038186803b1580156138ed57600080fd5b505afa158015613901573d6000803e3d6000fd5b505050506040513d606081101561391757600080fd5b81019080805190602001909291908051906020019092919080519060200190929190505050506dffffffffffffffffffffffffffff1691506dffffffffffffffffffffffffffff1691508273ffffffffffffffffffffffffffffffffffffffff168773ffffffffffffffffffffffffffffffffffffffff161461399b57808261399e565b81815b8095508196505050505050935093915050565b6000808411613a0b576040517f08c379a0000000000000000000000000000000000000000000000000000000008152600401808060200182810382526025815260200180613ee06025913960400191505060405180910390fd5b600083118015613a1b5750600082115b613a70576040517f08c379a0000000000000000000000000000000000000000000000000000000008152600401808060200182810382526028815260200180613eb86028913960400191505060405180910390fd5b82613a8483866117df90919063ffffffff16565b81613a8b57fe5b0490509392505050565b6000808273ffffffffffffffffffffffffffffffffffffffff168473ffffffffffffffffffffffffffffffffffffffff161415613b1d576040517f08c379a0000000000000000000000000000000000000000000000000000000008152600401808060200182810382526025815260200180613e3b6025913960400191505060405180910390fd5b8273ffffffffffffffffffffffffffffffffffffffff168473ffffffffffffffffffffffffffffffffffffffff1610613b57578284613b5a565b83835b8092508193505050600073ffffffffffffffffffffffffffffffffffffffff168273ffffffffffffffffffffffffffffffffffffffff161415613c05576040517f08c379a000000000000000000000000000000000000000000000000000000000815260040180806020018281038252601e8152602001807f556e697377617056324c6962726172793a205a45524f5f41444452455353000081525060200191505060405180910390fd5b9250929050565b6000808411613c66576040517f08c379a000000000000000000000000000000000000000000000000000000000815260040180806020018281038252602b815260200180613fb5602b913960400191505060405180910390fd5b600083118015613c765750600082115b613ccb576040517f08c379a0000000000000000000000000000000000000000000000000000000008152600401808060200182810382526028815260200180613eb86028913960400191505060405180910390fd5b6000613ce26103e5866117df90919063ffffffff16565b90506000613cf984836117df90919063ffffffff16565b90506000613d2483613d166103e8896117df90919063ffffffff16565b613d3c90919063ffffffff16565b9050808281613d2f57fe5b0493505050509392505050565b6000828284019150811015613db9576040517f08c379a00000000000000000000000000000000000000000000000000000000081526004018080602001828103825260148152602001807f64732d6d6174682d6164642d6f766572666c6f7700000000000000000000000081525060200191505060405180910390fd5b9291505056fe496e6b61556e697377617050726f76696465723a20494e53554646494349454e545f414c4c4f57414e43454f776e61626c653a206e6577206f776e657220697320746865207a65726f2061646472657373496e6b61556e697377617050726f76696465723a20494e53554646494349454e545f415f414d4f554e54556e697377617056324c6962726172793a204944454e544943414c5f414444524553534553496e6b61556e697377617050726f76696465723a20494e53554646494349454e545f42414c414e4345496e6b61556e697377617050726f76696465723a20494e53554646494349454e545f4f55545055545f414d4f554e54556e697377617056324c6962726172793a20494e53554646494349454e545f4c4951554944495459556e697377617056324c6962726172793a20494e53554646494349454e545f414d4f554e54496e6b61556e697377617050726f76696465723a20494e56414c49445f504154485472616e7366657248656c7065723a204554485f5452414e534645525f4641494c4544496e6b61556e697377617050726f76696465723a20504149525f4e4f545f4558495354496e6b61556e697377617050726f76696465723a20444541444c494e455f455850495245445472616e7366657248656c7065723a205452414e534645525f46524f4d5f4641494c4544556e697377617056324c6962726172793a20494e53554646494349454e545f494e5055545f414d4f554e54496e6b61556e697377617050726f76696465723a20494e53554646494349454e545f425f414d4f554e54496e6b61556e697377617050726f76696465723a20494e53554646494349454e545f494e5055545f414d4f554e54a2646970667358221220c8c8276157b18d6bababc889f2e6d8bd34dbb778d392c75863e70f035ce9b4ea64736f6c634300060c0033496e6b61556e697377617050726f76696465723a205a45524f5f464143544f52595f41444452455353496e6b61556e697377617050726f76696465723a205a45524f5f574554485f41444452455353",
  "immutableReferences": {},
  "source": "pragma solidity =0.6.12;\n\nimport \"./utils/Ownable.sol\";\nimport \"./eth/interfaces/IUniswapV2Factory.sol\";\nimport \"./eth/libraries/UniswapV2Library.sol\";\nimport './libraries/TransferHelper.sol';\nimport \"./eth/interfaces/IWETH.sol\";\nimport \"./eth/interfaces/IERC20.sol\";\nimport \"./libraries/SafeMath.sol\";\nimport \"./libraries/Convert.sol\";\n\ncontract InkaUniswapProvider is Ownable {\n    using SafeMath for uint256;\n\n    event InkaSwapOperation (\n        uint256 amountOut, \n        uint256 fee\n    );\n\n    address public WETH;\n    address public uniswapFactory;\n\n    uint256 public providerFee = 3 * 10 ** 7;\n    uint256 public constant FEE_DENOMINATOR = 10 ** 10;\n\n    modifier ensure(uint deadline) {\n        require(deadline >= block.timestamp, 'InkaUniswapProvider: DEADLINE_EXPIRED');\n        _;\n    }\n\n    constructor (\n        address _weth,\n        address _factory\n    ) public {\n        require(_weth != address(0), \"InkaUniswapProvider: ZERO_WETH_ADDRESS\");\n        require(_factory != address(0), \"InkaUniswapProvider: ZERO_FACTORY_ADDRESS\");\n\n        WETH = _weth;\n        uniswapFactory = _factory;\n    }\n\n    // **** ADD LIQUIDITY ****\n    function _addLiquidity(\n        address tokenA,\n        address tokenB,\n        uint amountADesired,\n        uint amountBDesired,\n        uint amountAMin,\n        uint amountBMin\n    ) private returns (uint amountA, uint amountB) {\n        require(IUniswapV2Factory(uniswapFactory).getPair(tokenA, tokenB) != address(0), \"InkaUniswapProvider: PAIR_NOT_EXIST\");\n        (uint reserveA, uint reserveB) = UniswapV2Library.getReserves(uniswapFactory, tokenA, tokenB);\n        if (reserveA == 0 && reserveB == 0) {\n            (amountA, amountB) = (amountADesired, amountBDesired);\n        } else {\n            uint amountBOptimal = UniswapV2Library.quote(amountADesired, reserveA, reserveB);\n            if (amountBOptimal <= amountBDesired) {\n                require(amountBOptimal >= amountBMin, 'InkaUniswapProvider: INSUFFICIENT_B_AMOUNT');\n                (amountA, amountB) = (amountADesired, amountBOptimal);\n            } else {\n                uint amountAOptimal = UniswapV2Library.quote(amountBDesired, reserveB, reserveA);\n                assert(amountAOptimal <= amountADesired);\n                require(amountAOptimal >= amountAMin, 'InkaUniswapProvider: INSUFFICIENT_A_AMOUNT');\n                (amountA, amountB) = (amountAOptimal, amountBDesired);\n            }\n        }\n    }\n    function addLiquidity(\n        address tokenA,\n        address tokenB,\n        uint amountADesired,\n        uint amountBDesired,\n        uint amountAMin,\n        uint amountBMin,\n        address to,\n        uint deadline\n    ) external virtual ensure(deadline) returns (uint amountA, uint amountB, uint liquidity) {\n        (amountA, amountB) = _addLiquidity(tokenA, tokenB, amountADesired, amountBDesired, amountAMin, amountBMin);\n        return _addLiquiditySupportFee(tokenA, tokenB, amountA, amountB, to);\n    }\n\n    function _addLiquiditySupportFee(\n        address tokenA, \n        address tokenB, \n        uint amountA, \n        uint amountB, \n        address to\n    ) internal virtual returns(uint amountAOut, uint amountBOut, uint liquidity) {\n        uint feeAmountA = amountA.mul(providerFee).div(FEE_DENOMINATOR);\n        uint feeAmountB = amountB.mul(providerFee).div(FEE_DENOMINATOR);\n        amountAOut = amountA.sub(feeAmountA);\n        amountBOut = amountB.sub(feeAmountB);\n        address pair = UniswapV2Library.pairFor(uniswapFactory, tokenA, tokenB);\n        TransferHelper.safeTransferFrom(tokenA, msg.sender, pair, amountAOut);\n        TransferHelper.safeTransferFrom(tokenB, msg.sender, pair, amountBOut);\n        liquidity = IUniswapV2Pair(pair).mint(to);\n    }\n\n    function addLiquidityETH(\n        address token,\n        uint amountTokenDesired,\n        uint amountTokenMin,\n        uint amountETHMin,\n        address to,\n        uint deadline\n    ) external virtual payable ensure(deadline) returns (uint amountToken, uint amountETH, uint liquidity) {\n        (amountToken, amountETH) = _addLiquidity(\n            token,\n            WETH,\n            amountTokenDesired,\n            msg.value,\n            amountTokenMin,\n            amountETHMin\n        );\n\n        return _addLiquidityETHSupportFee(token, amountToken, amountETH, amountTokenMin, amountETHMin, to);\n    }\n\n    function _addLiquidityETHSupportFee(\n        address token,\n        uint amountToken,\n        uint amountETH,\n        uint amountTokenMin,\n        uint amountETHMin,\n        address to\n    ) internal virtual returns(uint amountOutToken, uint amountOutETH, uint liquidity) {\n        require(IERC20(token).balanceOf(msg.sender) >= amountToken, 'InkaUniswapProvider: INSUFFICIENT_BALANCE');\n        require(IERC20(token).allowance(msg.sender, address(this)) >= amountToken, 'InkaUniswapProvider: INSUFFICIENT_ALLOWANCE');\n        TransferHelper.safeTransferFrom(token, msg.sender, address(this), amountToken);\n\n        uint feeAmountToken = amountToken.mul(providerFee).div(FEE_DENOMINATOR);\n        uint feeAmountETH = amountETH.mul(providerFee).div(FEE_DENOMINATOR);\n\n        amountOutToken = amountToken.sub(feeAmountToken);\n        amountOutETH = amountETH.sub(feeAmountETH);\n        require(amountOutToken >= amountTokenMin, 'InkaUniswapProvider: INSUFFICIENT_OUTPUT_AMOUNT');\n        require(amountOutETH >= amountETHMin, 'InkaUniswapProvider: INSUFFICIENT_OUTPUT_AMOUNT');\n        address pair = UniswapV2Library.pairFor(uniswapFactory, token, WETH);\n        TransferHelper.safeTransfer(token, pair, amountOutToken);\n        IWETH(WETH).deposit{value: amountOutETH}();\n        assert(IWETH(WETH).transfer(pair, amountOutETH));\n        liquidity = IUniswapV2Pair(pair).mint(to);\n    }\n\n    function swapTokensForETHSupportingFee(\n        uint amountIn,\n        uint swapAmountOutMin,\n        address[] calldata path,\n        address to,\n        uint deadline\n    ) external virtual ensure(deadline) {\n        uint amountOut = _swapTokensForETHSupportingFee(amountIn, swapAmountOutMin, path);\n        uint feeAmount = amountOut.mul(providerFee).div(FEE_DENOMINATOR);\n\n        emit InkaSwapOperation(amountOut, feeAmount);\n\n        IWETH(WETH).withdraw(amountOut);\n        uint adjustedAmountOut = amountOut.sub(feeAmount);\n        TransferHelper.safeTransferETH(to, adjustedAmountOut);\n    }\n\n    function _swapTokensForETHSupportingFee(\n        uint amountIn,\n        uint swapAmountOutMin,\n        address[] calldata path\n    ) internal virtual returns (uint) {\n        require(path[path.length - 1] == WETH, 'InkaUniswapProvider: INVALID_PATH');\n        TransferHelper.safeTransferFrom(\n            path[0], msg.sender, UniswapV2Library.pairFor(uniswapFactory, path[0], path[1]), amountIn\n        );\n        uint balanceBefore = IERC20(WETH).balanceOf(address(this));\n        _swap(path, address(this));\n        uint amountOut = IERC20(WETH).balanceOf(address(this)).sub(balanceBefore);\n        require(amountOut >= swapAmountOutMin, 'InkaUniswapProvider: INSUFFICIENT_OUTPUT_AMOUNT');\n        return amountOut;\n    }\n\n    function swapTokensForTokensSupportingFee(\n        uint amountIn,\n        uint swapAmountOutMin,\n        address[] calldata path,\n        address to,\n        uint deadline\n    ) external virtual ensure(deadline) {\n        uint amountOut = _swapTokensForTokensSupportingFee(amountIn, swapAmountOutMin, path);\n        uint feeAmount = amountOut.mul(providerFee).div(FEE_DENOMINATOR);\n\n        emit InkaSwapOperation(amountOut, feeAmount);\n\n        uint adjustedAmountOut = amountOut.sub(feeAmount);\n        TransferHelper.safeTransfer(path[path.length - 1], to, adjustedAmountOut);\n    }\n\n    function _swapTokensForTokensSupportingFee(\n        uint amountIn,\n        uint amountOutMin,\n        address[] calldata path\n    ) internal virtual returns (uint) {\n        TransferHelper.safeTransferFrom(\n            path[0], msg.sender, UniswapV2Library.pairFor(uniswapFactory, path[0], path[1]), amountIn\n        );\n        uint balanceBefore = IERC20(path[path.length - 1]).balanceOf(address(this));\n        _swap(path, address(this));\n        uint amountOut = IERC20(path[path.length - 1]).balanceOf(address(this)).sub(balanceBefore);\n        require(amountOut >= amountOutMin, 'InkaUniswapProvider: INSUFFICIENT_OUTPUT_AMOUNT');\n        return amountOut;\n    }\n\n    function swapETHForTokensSupportingFee(\n        uint amountOutMin,\n        address[] calldata path,\n        address to,\n        uint deadline\n    ) external virtual payable ensure(deadline) {\n        uint amountOut = _swapETHForTokensSupportingFee(amountOutMin, path, 0);\n        uint feeAmount = amountOut.mul(providerFee).div(FEE_DENOMINATOR);\n\n        emit InkaSwapOperation(amountOut, feeAmount);\n\n        uint adjustedAmountOut = amountOut.sub(feeAmount);\n        TransferHelper.safeTransfer(path[path.length - 1], to, adjustedAmountOut);\n    }\n\n    function _swapETHForTokensSupportingFee(\n        uint amountOutMin,\n        address[] calldata path,\n        uint fee\n    ) internal virtual returns (uint) {\n        require(path[0] == WETH, 'InkaUniswapProvider: INVALID_PATH');\n        uint amountIn = msg.value.sub(fee);\n        require(amountIn > 0, 'InkaUniswapProvider: INSUFFICIENT_INPUT_AMOUNT');\n        IWETH(WETH).deposit{value: amountIn}();\n        assert(IWETH(WETH).transfer(UniswapV2Library.pairFor(uniswapFactory, path[0], path[1]), amountIn));\n        uint balanceBefore = IERC20(path[path.length - 1]).balanceOf(address(this));\n        _swap(path, address(this));\n        uint amountOut = IERC20(path[path.length - 1]).balanceOf(address(this)).sub(balanceBefore);\n        require(amountOut >= amountOutMin, 'InkaUniswapProvider: INSUFFICIENT_OUTPUT_AMOUNT');\n        return amountOut;\n    }\n\n    function _swap(address[] memory path, address _to) internal virtual {\n        for (uint i; i < path.length - 1; i++) {\n            (address input, address output) = (path[i], path[i + 1]);\n            (address token0,) = UniswapV2Library.sortTokens(input, output);\n            require(IUniswapV2Factory(uniswapFactory).getPair(input, output) != address(0), \"InkaUniswapProvider: PAIR_NOT_EXIST\");\n            IUniswapV2Pair pair = IUniswapV2Pair(UniswapV2Library.pairFor(uniswapFactory, input, output));\n            uint amountInput;\n            uint amountOutput;\n            {\n            (uint reserve0, uint reserve1,) = pair.getReserves();\n            (uint reserveInput, uint reserveOutput) = input == token0 ? (reserve0, reserve1) : (reserve1, reserve0);\n            amountInput = IERC20(input).balanceOf(address(pair)).sub(reserveInput);\n            amountOutput = UniswapV2Library.getAmountOut(amountInput, reserveInput, reserveOutput);\n            }\n            (uint amount0Out, uint amount1Out) = input == token0 ? (uint(0), amountOutput) : (amountOutput, uint(0));\n            address to = i < path.length - 2 ? UniswapV2Library.pairFor(uniswapFactory, output, path[i + 2]) : _to;\n            pair.swap(amount0Out, amount1Out, to, new bytes(0));\n        }\n    }\n\n    receive() external payable { }\n\n    function withdraw(address token) external {\n        if (token == WETH) {\n            uint256 wethBalance = IERC20(token).balanceOf(address(this));\n            if (wethBalance > 0) {\n                IWETH(WETH).withdraw(wethBalance);\n            }\n            TransferHelper.safeTransferETH(owner(), address(this).balance);\n        } else {\n            TransferHelper.safeTransfer(token, owner(), IERC20(token).balanceOf(address(this)));\n        }\n    }\n\n    function setFee(uint _fee) external onlyOwner {\n        providerFee = _fee;\n    }\n\n    function setUniswapFactory(address _factory) external onlyOwner {\n        uniswapFactory = _factory;\n    }\n}",
  "sourcePath": "/home/aibek/inka-wallet/inka-uniswap-provider/contracts/InkaUniswapProvider.sol",
  "compiler": {
    "name": "solc",
    "version": "0.6.12+commit.27d51765.Emscripten.clang"
  },
  "schemaVersion": "3.3.4",
  "updatedAt": "2021-06-29T10:26:46.276Z",
  "networkType": "ethereum",
  "devdoc": {
    "kind": "dev",
    "methods": {
      "owner()": {
        "details": "Returns the address of the current owner."
      },
      "renounceOwnership()": {
        "details": "Leaves the contract without owner. It will not be possible to call `onlyOwner` functions anymore. Can only be called by the current owner. NOTE: Renouncing ownership will leave the contract without an owner, thereby removing any functionality that is only available to the owner."
      },
      "transferOwnership(address)": {
        "details": "Transfers ownership of the contract to a new account (`newOwner`). Can only be called by the current owner."
      }
    },
    "version": 1
  },
  "userdoc": {
    "kind": "user",
    "methods": {},
    "version": 1
  }
}